{
  "_format": "hh-sol-artifact-1",
  "contractName": "ECROPICO",
  "sourceName": "contracts/ECROPICO.sol",
  "abi": [
    {
      "inputs": [],
      "stateMutability": "nonpayable",
      "type": "constructor"
    },
    {
      "inputs": [],
      "name": "CannotRescueSaleToken",
      "type": "error"
    },
    {
      "inputs": [],
      "name": "EthTransferFailed",
      "type": "error"
    },
    {
      "inputs": [],
      "name": "InvalidAddress",
      "type": "error"
    },
    {
      "inputs": [],
      "name": "InvalidPrice",
      "type": "error"
    },
    {
      "inputs": [],
      "name": "NoEthSent",
      "type": "error"
    },
    {
      "inputs": [],
      "name": "NoTokensToRescue",
      "type": "error"
    },
    {
      "inputs": [],
      "name": "NoTokensToWithdraw",
      "type": "error"
    },
    {
      "inputs": [],
      "name": "OnlyOwner",
      "type": "error"
    },
    {
      "inputs": [],
      "name": "SaleTokenNotSet",
      "type": "error"
    },
    {
      "inputs": [],
      "name": "TokenTransferFailed",
      "type": "error"
    },
    {
      "inputs": [],
      "name": "UseTokenFunction",
      "type": "error"
    },
    {
      "anonymous": false,
      "inputs": [
        {
          "indexed": false,
          "internalType": "uint256",
          "name": "oldPrice",
          "type": "uint256"
        },
        {
          "indexed": false,
          "internalType": "uint256",
          "name": "newPrice",
          "type": "uint256"
        }
      ],
      "name": "PriceUpdated",
      "type": "event"
    },
    {
      "anonymous": false,
      "inputs": [
        {
          "indexed": true,
          "internalType": "address",
          "name": "token",
          "type": "address"
        }
      ],
      "name": "SaleTokenSet",
      "type": "event"
    },
    {
      "anonymous": false,
      "inputs": [
        {
          "indexed": true,
          "internalType": "address",
          "name": "buyer",
          "type": "address"
        },
        {
          "indexed": false,
          "internalType": "uint256",
          "name": "amountPaid",
          "type": "uint256"
        },
        {
          "indexed": false,
          "internalType": "uint256",
          "name": "tokensBought",
          "type": "uint256"
        }
      ],
      "name": "TokenPurchased",
      "type": "event"
    },
    {
      "inputs": [],
      "name": "buyToken",
      "outputs": [],
      "stateMutability": "payable",
      "type": "function"
    },
    {
      "inputs": [],
      "name": "ethPriceForToken",
      "outputs": [
        {
          "internalType": "uint256",
          "name": "",
          "type": "uint256"
        }
      ],
      "stateMutability": "view",
      "type": "function"
    },
    {
      "inputs": [],
      "name": "getContractInfo",
      "outputs": [
        {
          "internalType": "address",
          "name": "tokenAddress",
          "type": "address"
        },
        {
          "internalType": "string",
          "name": "tokenSymbol",
          "type": "string"
        },
        {
          "internalType": "uint8",
          "name": "tokenDecimals",
          "type": "uint8"
        },
        {
          "internalType": "uint256",
          "name": "tokenBalance",
          "type": "uint256"
        },
        {
          "internalType": "uint256",
          "name": "ethPrice",
          "type": "uint256"
        },
        {
          "internalType": "uint256",
          "name": "totalSold",
          "type": "uint256"
        }
      ],
      "stateMutability": "view",
      "type": "function"
    },
    {
      "inputs": [],
      "name": "owner",
      "outputs": [
        {
          "internalType": "address",
          "name": "",
          "type": "address"
        }
      ],
      "stateMutability": "view",
      "type": "function"
    },
    {
      "inputs": [
        {
          "internalType": "address",
          "name": "tokenAddress",
          "type": "address"
        }
      ],
      "name": "rescueTokens",
      "outputs": [],
      "stateMutability": "nonpayable",
      "type": "function"
    },
    {
      "inputs": [],
      "name": "saleToken",
      "outputs": [
        {
          "internalType": "address",
          "name": "",
          "type": "address"
        }
      ],
      "stateMutability": "view",
      "type": "function"
    },
    {
      "inputs": [
        {
          "internalType": "address",
          "name": "_token",
          "type": "address"
        }
      ],
      "name": "setSaleToken",
      "outputs": [],
      "stateMutability": "nonpayable",
      "type": "function"
    },
    {
      "inputs": [],
      "name": "tokensSold",
      "outputs": [
        {
          "internalType": "uint256",
          "name": "",
          "type": "uint256"
        }
      ],
      "stateMutability": "view",
      "type": "function"
    },
    {
      "inputs": [
        {
          "internalType": "uint256",
          "name": "newPrice",
          "type": "uint256"
        }
      ],
      "name": "updateTokenPrice",
      "outputs": [],
      "stateMutability": "nonpayable",
      "type": "function"
    },
    {
      "inputs": [],
      "name": "withdrawAllTokens",
      "outputs": [],
      "stateMutability": "nonpayable",
      "type": "function"
    },
    {
      "stateMutability": "payable",
      "type": "receive"
    }
  ],
  "bytecode": "0x60a080604052346100515766038d7ea4c6800060015533608052610a1b908161005782396080518181816101ba0152818161032e015281816103c6015281816105dd0152818161069a01526108090152f35b600080fdfe608060408181526004918236101561002b575b50361561001e57600080fd5b5163b67b8d2960e01b8152fd5b600090813560e01c908162ae3bf8146107db57508063280da6fa14610685578063518ab2a814610666578063676c0d77146105c55780637cc1f867146103f55780638da5cb5b146103b1578063a29f481c14610303578063a4821719146100eb578063c605af53146100cc5763e985e367036100125790346100c857816003193601126100c857905490516001600160a01b039091168152602090f35b5080fd5b5090346100c857816003193601126100c8576020906001549051908152f35b509190826003193601126102ff5734156102f25782546001600160a01b03163081146102e457815163313ce56760e01b81526020939084818381865afa908115610287579060ff9187916102b7575b5016604d81116102a457600a0a80340290348204036102a4576001549081156102915704918260025401600255848451809263a9059cbb60e01b825281898161019b89338a840160209093929193604081019460018060a01b031681520152565b03925af190811561028757869161025a575b501561024c5784808080347f00000000000000000000000000000000000000000000000000000000000000005af13d15610247573d6101eb816109c9565b906101f88651928361095b565b815286863d92013e5b156102395750907f3ceffd410054fdaed44f598ff5c1fb450658778e2241892da4aa646979dee617918151933485528401523392a280f35b8251630db2c7f160e31b8152fd5b610201565b825163022e258160e11b8152fd5b61027a9150853d8711610280575b610272818361095b565b810190610993565b386101ad565b503d610268565b84513d88823e3d90fd5b634e487b7160e01b875260128352602487fd5b634e487b7160e01b865260118252602486fd5b6102d79150863d88116102dd575b6102cf818361095b565b8101906109b0565b3861013a565b503d6102c5565b505163a327f80560e01b8152fd5b5163717e6b7b60e01b8152fd5b8280fd5b5091346102ff5760203660031901126102ff5780356001600160a01b0381811693918490036103ad577f00000000000000000000000000000000000000000000000000000000000000001633036103a057821561039357505081546001600160a01b031916811782557f3f8bb5f6e8ecfb5425a48c996d20089aff3396b3c168c13403c3fa3996f70a028280a280f35b5163e6c4247b60e01b8152fd5b51635fc483c560e01b8152fd5b8480fd5b5090346100c857816003193601126100c857517f00000000000000000000000000000000000000000000000000000000000000006001600160a01b03168152602090f35b509190346102ff57826003193601126102ff57825481516395d89b4160e01b81526001600160a01b039091169184828581865afa9182156105bb57859261053d575b5080519063313ce56760e01b825260209485838281885afa92831561051457879361051e575b508151906370a0823160e01b825230908201528581602481885afa9081156105145787916104dd575b5060e09596506001549160ff600254946104bb83519a8b998a5260c0818b015288519889918260c08d01528c8c019101610938565b16908601526060850152608084015260a0830152601f01601f19168101030190f35b90508581813d831161050d575b6104f4818361095b565b810103126105095760e0959650518695610486565b8680fd5b503d6104ea565b82513d89823e3d90fd5b610536919350863d88116102dd576102cf818361095b565b913861045d565b9091503d8086833e61054f818361095b565b8101906020818303126105b75780519067ffffffffffffffff8211610509570181601f820112156105b7578051610585816109c9565b926105928551948561095b565b81845260208284010111610509576105b09160208085019101610938565b9038610437565b8580fd5b81513d87823e3d90fd5b5091346102ff5760203660031901126102ff578035907f00000000000000000000000000000000000000000000000000000000000000006001600160a01b0316330361065857811561064b5750907f945c1c4e99aa89f648fbfe3df471b916f719e16d960fcec0737d4d56bd69683891600154908060015582519182526020820152a180f35b825162bfc92160e01b8152fd5b8251635fc483c560e01b8152fd5b5090346100c857816003193601126100c8576020906002549051908152f35b509190346102ff57826003193601126102ff577f00000000000000000000000000000000000000000000000000000000000000006001600160a01b0380821633036107cc578454168251906370a0823160e01b825230858301526020928383602481855afa9283156107c2578793610793575b50821561078357845163a9059cbb60e01b81526001600160a01b039091168682019081526020810193909352918391839182908990829060400103925af191821561077957859261075c575b50501561074f578280f35b5163022e258160e11b8152fd5b6107729250803d1061028057610272818361095b565b3880610744565b83513d87823e3d90fd5b8451637dd28aa760e11b81528690fd5b9092508381813d83116107bb575b6107ab818361095b565b81010312610509575191386106f8565b503d6107a1565b85513d89823e3d90fd5b505051635fc483c560e01b8152fd5b848484923461093457602090816003193601126103ad5783356001600160a01b0381811691829003610509577f0000000000000000000000000000000000000000000000000000000000000000928184163303610926575086541681146109165783516370a0823160e01b81523086820152918383602481855afa9283156107c25787936108e7575b5082156108d757845163a9059cbb60e01b81526001600160a01b039091168682019081526020810193909352918391839182908990829060400103925af19182156107795785926108ba5750501561074f578280f35b6108d09250803d1061028057610272818361095b565b8480610744565b84516362f3ba9760e01b81528690fd5b9092508381813d831161090f575b6108ff818361095b565b8101031261050957519187610864565b503d6108f5565b5050505163ad2b859d60e01b8152fd5b635fc483c560e01b81528690fd5b8380fd5b60005b83811061094b5750506000910152565b818101518382015260200161093b565b90601f8019910116810190811067ffffffffffffffff82111761097d57604052565b634e487b7160e01b600052604160045260246000fd5b908160209103126109ab575180151581036109ab5790565b600080fd5b908160209103126109ab575160ff811681036109ab5790565b67ffffffffffffffff811161097d57601f01601f19166020019056fea26469706673582212209dc71929264338de778dd6d0d30721633eca6dddd4580b2605a5e1898895fbdb64736f6c63430008130033",
  "linkReferences": {},
  "deployedLinkReferences": {}
}